{
    "contractName": "Counter",
    "abi": [
        {
            "inputs": [],
            "name": "decrement",
            "outputs": [],
            "stateMutability": "nonpayable",
            "type": "function"
        },
        {
            "inputs": [],
            "name": "getNumber",
            "outputs": [
                {
                    "internalType": "uint256",
                    "name": "",
                    "type": "uint256"
                }
            ],
            "stateMutability": "view",
            "type": "function"
        },
        {
            "inputs": [],
            "name": "increment",
            "outputs": [],
            "stateMutability": "nonpayable",
            "type": "function"
        },
        {
            "inputs": [
                {
                    "internalType": "uint256",
                    "name": "newNumber",
                    "type": "uint256"
                }
            ],
            "name": "setNumber",
            "outputs": [],
            "stateMutability": "nonpayable",
            "type": "function"
        },
        {
            "inputs": [
                {
                    "internalType": "uint256",
                    "name": "pNumber",
                    "type": "uint256"
                }
            ],
            "name": "substract",
            "outputs": [],
            "stateMutability": "nonpayable",
            "type": "function"
        }
    ],
    "bytecode": "60808060405234601557610122908161001a8239f35b5f80fdfe608060405260043610156010575f80fd5b5f3560e01c80632baeceb71460d05780633fb5c1cb1460ba578063693af85414609a578063d09de08a1460685763f2c9ecd814604a575f80fd5b346064575f36600319011260645760205f54604051908152f35b5f80fd5b346064575f3660031901126064575f545f1981146086576001015f55005b634e487b7160e01b5f52601160045260245ffd5b3460645760203660031901126064575f5460043581039081116086575f55005b3460645760203660031901126064576004355f55005b346064575f3660031901126064575f5480156086575f19015f5500fea2646970667358221220b62f0718972406dcb1ccb74d874a95b89356f2044a97bbde21b55140be00772864736f6c634300081e0033",
    "sourcePath": "c:/Users/leone/Documents/Desarrollo Software/Web3/foundry/tutorial_foundry/src/Counter.sol",
    "compiler": {
        "name": "solc",
        "version": "0.8.30+commit.73712a01"
    },
    "functionHashes": {
        "decrement()": "2baeceb7",
        "getNumber()": "f2c9ecd8",
        "increment()": "d09de08a",
        "setNumber(uint256)": "3fb5c1cb",
        "substract(uint256)": "693af854"
    },
    "gasEstimates": {
        "creation": {
            "codeDepositCost": "58000",
            "executionCost": "117",
            "totalCost": "58117"
        },
        "external": {
            "decrement()": "24352",
            "getNumber()": "2332",
            "increment()": "24421",
            "setNumber(uint256)": "22252",
            "substract(uint256)": "24404"
        }
    }
}